{
  "contractName": "OmikoinTokenSale",
  "abi": [
    {
      "inputs": [
        {
          "internalType": "contract OmikoinToken",
          "name": "_tokenContract",
          "type": "address"
        }
      ],
      "payable": false,
      "stateMutability": "nonpayable",
      "type": "constructor"
    },
    {
      "constant": true,
      "inputs": [],
      "name": "tokenContract",
      "outputs": [
        {
          "internalType": "contract OmikoinToken",
          "name": "",
          "type": "address"
        }
      ],
      "payable": false,
      "stateMutability": "view",
      "type": "function"
    }
  ],
  "bytecode": "0x608060405234801561001057600080fd5b506040516101a43803806101a48339818101604052602081101561003357600080fd5b8101908080519060200190929190505050336000806101000a81548173ffffffffffffffffffffffffffffffffffffffff021916908373ffffffffffffffffffffffffffffffffffffffff16021790555080600160006101000a81548173ffffffffffffffffffffffffffffffffffffffff021916908373ffffffffffffffffffffffffffffffffffffffff1602179055505060d0806100d46000396000f3fe6080604052348015600f57600080fd5b506004361060285760003560e01c806355a373d614602d575b600080fd5b60336075565b604051808273ffffffffffffffffffffffffffffffffffffffff1673ffffffffffffffffffffffffffffffffffffffff16815260200191505060405180910390f35b600160009054906101000a900473ffffffffffffffffffffffffffffffffffffffff168156fea265627a7a723158208377a953e2451e367de458512b20860319e0be0a2619a99ef3913c21ca93ffcf64736f6c634300050c0032",
  "source": "pragma solidity ^0.5.11;\nimport \"./OmikoinToken.sol\";\n\n\ncontract OmikoinTokenSale {\n    address admin;\n    OmikoinToken public tokenContract;\n\n    constructor(OmikoinToken _tokenContract) public {\n        admin = msg.sender;\n        tokenContract = _tokenContract;\n    }\n\n}",
  "sourcePath": "/Users/Theodor/omikoin/contracts/OmikoinTokenSale.sol",
  "compiler": {
    "name": "solc",
    "version": "0.5.12+commit.7709ece9.Emscripten.clang"
  },
  "schemaVersion": "3.0.20",
  "updatedAt": "2019-12-31T17:44:33.623Z",
  "devdoc": {
    "methods": {}
  },
  "userdoc": {
    "methods": {}
  }
}